:020000040800F2
:10000000F81B002005030008814600086D46000823
:100010007D460008F1050008C155000817030008D7
:10002000000000000000000000000000714800080F
:10003000F505000800000000854600087548000826
:100040002103000821030008210300082103000800
:1000500021030008210300082103000821030008F0
:1000600021030008210300082103000821030008E0
:1000700021030008210300082103000821030008D0
:1000800021030008210300082103000821030008C0
:1000900021030008210300082103000821030008B0
:1000A00021030008210300082103000821030008A0
:1000B00000000000010600080D06000821030008EA
:1000C0002103000821030008210300082103000880
:1000D0002103000821030008210300082103000870
:1000E0002103000821030008210300082103000860
:1000F0002103000821030008210300082103000850
:10010000210300082103000821030008210300083F
:10011000210300082103000821030008210300082F
:10012000210300082103000821030008210300081F
:1001300021030008A955000821030008B55500084F
:10014000C548000821030008714600082103000883
:1001500021030008210300082103000821030008EF
:1001600021030008210300082103000821030008DF
:1001700021030008210300082103000821030008CF
:1001800021030008210300082103000821030008BF
:1001900021030008210300082103000821030008AF
:1001A000210300082103000821030008210300089F
:1001B00021030008000000002103000821030008BB
:1001C00021030008000000002103000821030008AB
:1001D000210300082103000821030008210300086F
:1001E000210300082103000821030008210300085F
:1001F00000000000000000002103000821030008A7
:10020000210300082103000821030008210300083E
:10021000210300082103000821030008210300082E
:10022000210300082103000821030008210300081E
:10023000210300082103000800F002F800F052F842
:1002400014A696E8000CB244B344DA4501D100F09C
:1002500049F8BAE80F000FA696E83000A5EB0405B0
:1002600004EB0607AAEB0704A7F101074FEA1515EF
:100270004FEA3414A4F10104AC4201D300F032F887
:1002800013F0010F18BFFB1A43F0010300F001F84F
:10029000DBE71847DC590000FC590000103A24BF86
:1002A00078C878C1FAD8520724BF30C830C144BFDB
:1002B00004680C60704700007047000000230024B1
:1002C00000250026103A28BF78C1FBD8520728BF66
:1002D00030C148BF0B6070471FB505F03BFC1FBD28
:1002E00010B510BD00F049F91146FFF7F5FF05F014
:1002F00069F900F067F903B4FFF7F2FF03BC00F0FF
:100300006FF900000A4880470A480047FEE7FEE709
:10031000FEE7FEE7FEE7FEE7FEE7FEE7FEE7FEE7B5
:10032000FEE7000004480549054A064B70470000F7
:100330007948000839020008F8150020F81B002051
:10034000F8170020F817002053EA020C00F069802B
:100350002DE9F04B4FF00006002B1FBFB3FA83F5D9
:1003600003FA05F424FA05F65E4012BF1643B2FA0A
:1003700082F502FA05F4C5F120051EBF22FA05FC3C
:1003800044EA0C04203556EA044C4FEA144418BFE2
:10039000641C4FF000084FF00009904271EB030C11
:1003A00039D3002919BFB1FA81F701FA07F6B0FA7B
:1003B00080F700FA07F6C7F120071EBF20FA07FCF6
:1003C00046EA0C062037B6FBF4FCA7EB0507103F06
:1003D00007F01F0BCBF120062CFA06F60CFA0BFBEC
:1003E00044BFB3460026202FA4BF5E464FF0000B4B
:1003F0005BEA060C08BF4FF0010B19EB0B0948EB49
:100400000608ABFB027C06FB02CC0BFB03CCC01B3B
:1004100071EB0C01C1E70B46024641464846BDE878
:10042000F08B13B5084318BF4FF0FF300146AFF310
:100430000080BDE81C407047032A40F2308010F075
:10044000030C00F0158011F8013BBCF1020F62446F
:1004500098BF11F801CB00F8013B38BF11F8013B00
:10046000A2F1040298BF00F801CB38BF00F8013BAD
:1004700011F0030300F04F80083AC0F0088051F8F3
:10048000043B083A51F804CBA0E80810F5E7121D28
:100490005CBF51F8043B40F8043BAFF30080D20747
:1004A00024BF11F8013B11F801CB48BF11F8012B13
:1004B00024BF00F8013B00F801CB48BF00F8012B36
:1004C00070474FF0000200B5134694469646203917
:1004D00022BFA0E80C50A0E80C50B1F12001BFF4FD
:1004E000F7AF090728BFA0E80C5048BF0CC05DF863
:1004F00004EB890028BF40F8042B08BF704748BFB1
:1005000020F8022B11F0804F18BF00F8012B704724
:1005100070477047704710B5203AC0F00B80B1E8C3
:100520001850A0E81850B1E81850A0E81850203A28
:10053000BFF4F5AF5FEA027C24BFB1E81850A0E831
:10054000185044BF18C918C0BDE810405FEA827C4B
:1005500024BF51F8043B40F8043B08BF7047D20762
:1005600028BF31F8023B48BF11F8012B28BF20F803
:10057000023B48BF00F8012B7047754600F02CF88D
:10058000AE4605006946534620F00700854618B080
:1005900020B5FFF7C7FEBDE820404FF000064FF042
:1005A00000074FF000084FF0000BAC46ACE8C00964
:1005B000ACE8C009ACE8C009ACE8C00921F007010B
:1005C0008D46704710B50446AFF300802046BDE865
:1005D0001040FFF790BE0000004870471000002058
:1005E00001491820ABBEFEE726000200704700005C
:1005F000FEE700007047000072B600BFFEE7000093
:1006000040F28000C2F2000000F0D2B840F2F800E0
:10061000C2F2000000F0CCB8002804BF01207047EF
:1006200080B5D0F874E0BEF1000F54D090F85410AB
:1006300002680129D2F814C004D0022946D11CF462
:10064000803143D090F85410012935D190F84C10E6
:1006500001294FF0020134D0012380F84C3080F89A
:1006600054108EF80C1000218165CEF810105169DD
:1006700041F4BA415161416E19B1516941F40071BF
:100680005161006F18B1506940F400505061DEF8BC
:1006900000000023016ACFF60103490861F35963A2
:1006A00061F39A634FF6FF7120EA010111604FF682
:1006B000FC7108401844D0675069002140F00100E7
:1006C0005061BDE880400846704700BF4021816509
:1006D000002180F84C100121BDE880400846704799
:1006E000B0B5044600F07CFD002C04BF0120B0BD75
:1006F000054694F85400022824D12068416941F04D
:1007000004014161052084F8540000BF2168086994
:1007100080041FD400F064FD401B0628F6D3A06DB2
:1007200040F01000A065032084F8540094F85000B5
:1007300000064FF0010001D5616F0873002184F8B5
:100740004C10B0BD2020A0650120002184F84C1081
:10075000B0BD00BF4869012240F00200486104209A
:1007600084F854004FF4FE40C86084F8542094F894
:10077000500000064FF00000E0D5636F1A738864E4
:10078000002184F84C10B0BD80B190F854100229BB
:100790000AD1042180F85410006842F20402416931
:1007A000114341610020704720218165012070477D
:1007B00010B504680C23214604F57B6263F30B013A
:1007C000C2F3C4120968D140C9074BD02169490559
:1007D00044BF61695FEA415146D42169090544BFBC
:1007E00061695FEA015147D42169C90444BF616965
:1007F0005FEAC14148D42169490444BF61695FEAA5
:10080000414149D42169890544BF61695FEA815149
:100810004AD42169890444BF61695FEA81414FD4A8
:100820002169C90544BF61695FEAC15164D4816D22
:10083000C1B101684A6942F002024A61012180F8AF
:10084000541090F85020120644BF426F1173816E0D
:100850000022002980F84C2008BF10BDBDE81040E0
:10086000084700BF10BD00BF4FF48061E160816D9B
:1008700041F001018165B0E74FF40061E160816DF5
:1008800041F002018165AFE74FF48051E160816D75
:1008900041F004018165AEE74FF48041E160816D74
:1008A00041F008018165ADE74FF40071E160426EEF
:1008B000002AAED00446904720462468A9E700BF2E
:1008C0004FF40051E16090F8541004291ED1616981
:1008D000012221F400516161616941F0020161610D
:1008E00080F8542090F85010090603D5416F0A7320
:1008F0000021A164C16EABE790F85010090611D435
:10090000A16CD9B900F1540216E000BF052180F8AE
:100910005410026F002A3FF483AF044690472046EC
:1009200024687DE7E16F49B9A16C39B9012180F8EC
:100930005410416F01F10C02012111704FF440710C
:10094000E160016E0022002980F84C203FF46FAF77
:100950000446884720466AE7B0B5044600F040FCEC
:10096000002C04BF0120B0BD002184F84C100546C6
:10097000206894F8542022B9C4E91811C4E91A1166
:100980002167022184F85410416941F00601416158
:1009900020684169C9070BD000F022FC401B0528E4
:1009A000F6D9012003221021A16584F85420B0BD9E
:1009B000216A426904F1100522F4430211434161A6
:1009C000E36926CD1A4311434F22C5F2020240F2D9
:1009D0004F6C904241EA050EC5F2020C1CDC40F25D
:1009E0004F43C4F20203984232DC40F24F23C4F278
:1009F0000203984256DC40F24F13C4F202039842BD
:100A000000F394805023C4F20203984200F0E8807F
:100A1000D023C4F20203E1E040F24F43C5F20203E7
:100A200098422DDC40F24F23C5F2020398424BDC82
:100A300040F24F13C5F20203984200F38380502323
:100A4000C5F20203984200F0CB80D023C4E000BF7F
:100A500040F24F63C4F20203984245DC40F24F5328
:100A6000C4F20203984277DC40F25043C4F202031E
:100A7000984200F0B58040F2D043C4F20203ADE0EA
:100A8000604543DC40F24F53C5F2020398426FDCED
:100A900040F25043C5F20203984200F0A18040F2B8
:100AA000D04399E040F24F33C4F20203984269DC2C
:100AB00040F25023C4F20203984200F0918040F2C9
:100AC000D023C4F2020389E040F24F33C5F202039F
:100AD000984263DC40F25023C5F20203984200F0D2
:100AE0007F8040F2D02377E040F24F73C4F20203DC
:100AF00098425DDC40F25063C4F2020398426FD02A
:100B000040F2D063C4F2020368E000BF40F24F73CA
:100B1000C5F20203984257DC40F25063C5F202036B
:100B200098425DD040F2D06356E000BF40F25013CF
:100B3000C4F20203984253D040F2D013C4F202032D
:100B40004CE000BF40F25013C5F20203984247D078
:100B500040F2D01340E000BF40F25053C4F2020311
:100B600098423DD040F2D053C4F2020336E000BFB9
:100B700040F25053C5F20203984231D040F2D053B4
:100B80002AE000BF40F25033C4F20203984227D05B
:100B900040F2D033C4F2020320E000BF40F25033F1
:100BA000C5F2020398421BD040F2D03314E000BFDC
:100BB00040F25073C4F20203984211D040F2D07355
:100BC000C4F202030AE000BF40F2D073C5F2020390
:100BD000984205D040F25073C5F20203984212D1F8
:100BE000D4E909354FF07C72E16A02EB05524FF40B
:100BF0007C7505EB031302F07C7203F47C731143E4
:100C000019434EEA010E016C231D01F0802141EAD7
:100C10000E0101640ECB256B01F07F011143B3F58A
:100C2000007F41EA050225D0B3F5806F40F0EC80EB
:100C300040F2CF71C4F2020188421FDD40F2CF3191
:100C4000C5F20201884239DC40F2CF11C5F202013F
:100C5000884261DCCF21C5F20201884200F3AA80FC
:100C600040F2D071C4F20201884200F0CB805021E2
:100C7000C4E000BF42F40072C6E000BF40F2CF31D2
:100C8000C4F2020188422FDD40F2CF51C4F20201CA
:100C9000884261DC40F2CF41C4F20201884200F395
:100CA000078140F2D031C4F20201884200F0AA80EC
:100CB00040F25041C4F20201A2E000BF40F2CF5125
:100CC000C5F20201884237DC40F2CF41C5F2020191
:100CD000884277DC40F2D031C5F20201884200F050
:100CE000918040F2504189E040F2CF11C4F20201FC
:100CF000884243DD40F2CF21C4F2020188424DDC3C
:100D000040F2D011C4F2020188427BD040F250215F
:100D1000C4F2020174E000BF40F2CF21C5F202012B
:100D2000884259DC40F2D011C5F20201884269D0F4
:100D300040F2502162E000BF40F2CF61C5F20201F3
:100D4000884253DC40F2D051C5F20201884259D0AA
:100D500040F2506152E000BF40F2CF61C4F20201A4
:100D6000884200F3B18040F2D051C4F202018842BF
:100D700048D040F25061C4F2020141E05021C4F277
:100D8000020188423ED0D021C4F20201884239D00B
:100D900040F25011C4F2020132E000BF40F2D02113
:100DA000C4F2020188422DD040F25031C4F2020157
:100DB00026E000BFD021C5F20201884222D040F2D5
:100DC00050111BE040F2D041C5F20201884219D017
:100DD00040F2505112E000BF40F2D021C5F20201B2
:100DE00088420FD040F2503108E000BF40F250710D
:100DF000C5F20201884205D040F2D061C5F202017D
:100E000088426DD142F48062416C43F28013C3F694
:100E1000C04319401143416400216045816411DCE5
:100E200040F24F71C4F2020188421BDC40F2506173
:100E3000C4F2020188422DD040F2D061C4F2020116
:100E400026E000BF40F24F71C5F20201884215DC76
:100E500040F25061C5F2020188421BD040F2D061DD
:100E600014E000BF40F25071C4F20201884211D078
:100E700040F2D071C4F202010AE000BF40F2D0712A
:100E8000C5F20201884205D040F25071C5F202015C
:100E9000884202D10021416581650021C167606BF4
:100EA000012220650020A16584F85420B0BD00BF58
:100EB00040F2D041C4F202018842A3D040F2505126
:100EC000C4F202019CE700BF40F2D061C4F202010B
:100ED000884297D040F25071C4F2020190E700BFFF
:100EE00040F2D071C5F20201884208BF42F480622C
:100EF0008AE7000000284ED090F84CC0BCF1010FEA
:100F000004BF022070474FF0010C80F84CC090F8ED
:100F100054C0BCF1010F39D110B54FF0020C80F86C
:100F200054C04FF0000CC0F858C0D0F800C0D0F842
:100F300064E0DCF84840BEF1000FC3EA0403CCF8DB
:100F400048304FF4FE43CCF80C30CCF84C10CCF8C1
:100F50005020DCF8141041F4BA41CCF8141005D03C
:100F6000DCF8141041F40071CCF81410006F28B1B3
:100F7000DCF8140040F40050CCF81400DCF8140045
:100F800040F00100CCF81400002010BD4021816524
:100F9000002180F84C100120704700002DE9F04F2F
:100FA00083B00E68002E00F017818146203001903A
:100FB00047F67F70C0F22F0000EA9920002200233C
:100FC0004FF0010B00274FF00008C4F20262CA463E
:100FD0004FF0000C00900FE00022C4F202620E6895
:100FE0000CF1010C36FA0CF008F1020807F10407C5
:100FF00003F1080300F0F0800BFA0CF516EA050087
:10100000EDD09145029025D04E6846F01002122A8C
:101010005ED16FF0030000EA5C02019807F01C0546
:1010200050F802E00E690F24AC4006F00F062EEADD
:101030000404AE4026438650DAF8002003204E68B0
:1010400000FA08F5AA4306F0030505FA08F52A4355
:1010500049E000BF10684E6845F6883406F0010686
:10106000A84306FA0CF6C0F60004304304EBCC06A5
:101070001060D6F804E06FF0030054F83CA000EADA
:101080005E051C20554400EA8E06D5F820B00F22DC
:10109000484602FA06F92BEA090281460B2000FABB
:1010A00006F632432A62DAF800204FEA4E050320A2
:1010B00000FA05F60220B24300FA05F52A43CAF801
:1010C00000204E684FF0010B122E11D936E000BF00
:1010D000DAF80020032000FA08F5AA4306F0030519
:1010E00005FA08F52A43E646CAF80020122E25D84C
:1010F0000BFA06F212F0061F1AD04FEA4E04032034
:10110000DAF8082000FA04F5C868AA43A0401043A2
:10111000CAF80800DAF804000BFA0EF2904332091C
:1011200002FA0EF21043032ECAF8040002D005E0C2
:10113000032E03D1886801283FF44EAFDAF80C0083
:101140004FEA4E0203258C689540A84304FA02F248
:101150001043F200CAF80C007FF53EAF42F2000ED9
:101160002CF00300C4F2026E7044026E03F0180605
:101170000F25B540AA43009D05FA06F632430266E4
:10118000DEF80000029C4A6840EA0406D50258BF17
:1011900020EA0406CEF80060DEF80400950240EA7A
:1011A000040658BF20EA0406CEF80460DEF8840086
:1011B000950340EA040658BF20EA0406CEF884608E
:1011C000DEF88000D20340EA040658BF20EA040695
:1011D000CEF8806000E700BF03B0BDE8F08F0000EC
:1011E00041F2F050C2F200000068704740F2000087
:1011F00041F2F051C2F20000C2F2000100780A6828
:10120000104408607047000080B542F20000C4F24C
:101210000200016841F480710160032000F0C4F80D
:1012200001F0E0FC40F62041C4F20261096845F695
:101230006E3201F00F01C0F60002515CC84040F26E
:101240000801C2F200010860042002F00BFB0F202D
:1012500000F008F800281CBF012080BD00F056F8FF
:10126000002080BDB0B540F20005C2F2000529782B
:10127000E1B304464EF21000CEF2000000684007D1
:1012800010D402F03DFB022824D001281AD078BBEC
:1012900040F20800C2F20000006829784FF4FA52C8
:1012A00007E000BF40F20800C2F2000000684FF4FF
:1012B0007A72B2FBF1F1B0FBF1F002F00FFBA8B9CA
:1012C0001BE000BF28784FF47A71B1FBF0F04FF4C7
:1012D000FA4106E028784FF47A71B1FBF0F04FF450
:1012E0000041B1FBF0F002F0F9FA30B10120B0BDDD
:1012F000002002F0F3FA0028F8D14FF0FF30214629
:10130000002200F025F800206C60B0BD81B040F6EE
:101310009440C4F20260016841F004010160006879
:1013200000F004000090009801B07047002848BF0A
:1013300070471C2200F01F0102EAD000012202FACD
:1013400001F14EF20012CEF200028150704700000F
:1013500010B54EF60C5CCEF2000CDCF80030C3F396
:10136000022E8EF00704042C28BF0424BEF10303D0
:101370004FF0FF3E38BF00230EFA04F4A14399401A
:101380000EFA03F39A43114300F00F0200F1604399
:101390000901043A03F564436244002848BF02F19E
:1013A0000C03197010BD00004EF60C51CEF2000176
:1013B0000A684FF6FF031A4060F30A2242F0806089
:1013C00040F0FD700860704740F60C0CC4F2026CEF
:1013D000DCF8302002F4403282420BD1B0F1011F20
:1013E00068D3DCF8000040F48020CCF80000002036
:1013F000704700BFDCF80020B0F5803F22F4E02207
:1014000042EA000240F2080088BF42F48022CCF891
:101410000020C2F20000006841F25972CDF2B7120A
:10142000A0FB0202900B0346DCF80010B3F1FF3280
:1014300018BF012209041ED4591C1CD0DCF800106E
:10144000002B1A4618BF0122090414D49BB1DCF802
:1014500000105A1E18BF012209040CD4012B0AD017
:10146000DCF800109A1E18BF0122090403D4022BD5
:10147000A3F10403D8D112B3DCF83010421C0904E4
:1014800016D4AAB1DCF83010090412D488B1DCF803
:101490003010090410D401280ED0DCF83010021FDF
:1014A000090402D402281046E6D1901C10B906E0C7
:1014B000104620B10020704701380028FAD10320DF
:1014C0007047000040F63C00C4F20260006800F47F
:1014D00040307047B0B540F6284EC4F2026EDEF8D8
:1014E0000C50DEF80030DEF80010DEF80020DEF8E8
:1014F0001040D206E40804EAE272C1F3032103F0CB
:1015000003036FF35F3201F1010C00EE102A6FF359
:101510005F25B8EE400ADFE803F003030B0B00BFC2
:101520005EF8201C09025DD4DEF8CC100B045BE0F1
:1015300001EE10CA9FED472AB8EE411ADEF80C10F2
:1015400082EE011A6FF35F2102EE101A9FED403A0E
:10155000B8EE422A20EE030A30EE020AB7EE002A65
:1015600030EE020A21EE000ADEF80010C90360D551
:10157000DEF80C10C1F34621013101EE101AB8EE6D
:10158000411A80EE011ABCEEC11A11EE102A026057
:10159000DEF80010890352D5DEF80C10C1F30641C5
:1015A000013101EE101AB8EE411A80EE011ABCEEBC
:1015B000C11A11EE102A4260DEF80010490344D52A
:1015C000DEF80C10C1F30661013101EE101AB8EE1D
:1015D000411A80EE010ABCEEC00A10EE101A8160BA
:1015E000B0BD00BF5EF8203C45F60842190FC0F6BA
:1015F000000202EB810102EE10CA91ED001AB8EE72
:10160000422AB8EE411A9FED123A81EE021A02EE1A
:10161000105A20EE030AB8EE422A30EE020AB7EE64
:10162000002A30EE020A20EE010ADEF80010C9039B
:101630009ED400220260DEF800108903ACD40022A0
:101640004260DEF800104903BAD400218160B0BDC9
:10165000000000390024744BB0B540F62C4EC4F2A3
:10166000026EDEF81050DEF80030DEF80010DEF812
:101670000020DEF81440D206E40804EAE272C1F366
:10168000032103F003036FF35F3201F1010C00EE5D
:10169000102A6FF35F25B8EE400ADFE803F003037A
:1016A0000B0B00BF5EF8241C09025DD4DEF8C810E5
:1016B0000B045BE001EE10CA9FED472AB8EE411A19
:1016C000DEF8101082EE011A6FF35F2102EE101A9D
:1016D0009FED403AB8EE422A20EE030A30EE020AAD
:1016E000B7EE002A30EE020A21EE000ADEF8001002
:1016F000C90360D5DEF81010C1F34621013101EEB7
:10170000101AB8EE411A80EE011ABCEEC11A11EEA1
:10171000102A0260DEF80010890352D5DEF810109E
:10172000C1F30641013101EE101AB8EE411A80EE04
:10173000011ABCEEC11A11EE102A4260DEF8001048
:10174000490344D5DEF81010C1F30661013101EE02
:10175000101AB8EE411A80EE010ABCEEC00A10EE73
:10176000101A8160B0BD00BF5EF8243C45F6084207
:10177000190FC0F6000202EB810102EE10CA91EDD2
:10178000001AB8EE422AB8EE411A9FED123A81EEE5
:10179000021A02EE105A20EE030AB8EE422A30EE88
:1017A000020AB7EE002A30EE020A20EE010ADEF845
:1017B0000010C9039ED400220260DEF800108903E5
:1017C000ACD400224260DEF800104903BAD40021F4
:1017D0008160B0BD000000390024744BB0B540F604
:1017E000304EC4F2026EDEF81450DEF80030DEF83F
:1017F0000010DEF80020DEF81840D206E40804EA03
:10180000E272C1F3032103F003036FF35F3201F1CE
:10181000010C00EE102A6FF35F25B8EE400ADFE8F6
:1018200003F003030B0B00BF5EF8281C09025DD414
:10183000DEF8C4100B045BE001EE10CA9FED472AEE
:10184000B8EE411ADEF8141082EE011A6FF35F2130
:1018500002EE101A9FED403AB8EE422A20EE030A3B
:1018600030EE020AB7EE002A30EE020A21EE000A3C
:10187000DEF80010C90360D5DEF81410C1F346216C
:10188000013101EE101AB8EE411A80EE011ABCEED9
:10189000C11A11EE102A0260DEF80010890352D539
:1018A000DEF81410C1F30641013101EE101AB8EE52
:1018B000411A80EE011ABCEEC11A11EE102A4260E4
:1018C000DEF80010490344D5DEF81410C1F30661B8
:1018D000013101EE101AB8EE411A80EE010ABCEE99
:1018E000C00A10EE101A8160B0BD00BF5EF8283C3F
:1018F00045F60842190FC0F6000202EB810102EE24
:1019000010CA91ED001AB8EE422AB8EE411A9FEDC6
:10191000123A81EE021A02EE105A20EE030AB8EED5
:10192000422A30EE020AB7EE002A30EE020A20EE1A
:10193000010ADEF80010C9039ED400220260DEF81E
:1019400000108903ACD400224260DEF80010490385
:10195000BAD400218160B0BD000000390024744B6E
:1019600080B584B0024647F6FF7300209B1A70EBE7
:101970000103C0F26D80D2F17F0370EB0103C0F26E
:10198000A380013A61F10001D2F13F034FF000035F
:1019900073EB0101C0F04A84DFE812F040005A0204
:1019A00048040402480448044804EA01480448047E
:1019B000480448044804480448041E0248044804F3
:1019C00048044804480448044804480448044804B7
:1019D00048044804480448044804C601480448042C
:1019E0004804480448044804480448044804480497
:1019F0004804480448044804480448044804480487
:101A00004804480448044804480448044804480476
:101A1000480448044804480448043A0240F6004098
:101A2000C4F20260D0F8E01001F00301012900F0D7
:101A30005183002900F0F8820268022903D112F4D0
:101A4000806240F09E83D0F8F00003294FE200BF8F
:101A50004FF6FF73C0F23F039B1A70EB010367DB85
:101A60004FF6FF73C0F203039B1A4FF0000C7CEBA0
:101A7000010380F285804FF6FF73C0F20F039B1ABB
:101A80007CEB0103C0F2EE8082F480230B4300F074
:101A9000F98182F40022114340F0C88340F60040EF
:101AA000C4F20260D0F8E410026801F440519204DC
:101AB00040F12483002940F0218346F60040C0F223
:101AC000DC2004B080BD00BF40F2FF339B1A4FF012
:101AD000000C7CEB010380F2778041F6FF739B1AC8
:101AE0007CEB0103C0F2DC8082F480630B4300F0E6
:101AF000DF8182F40062114340F0988340F6004099
:101B0000C4F20260D0F8E81011F4407100F0928243
:101B1000D0F8F020B1F5807F03D112F0006240F0E0
:101B200000830268B1F5007F00F069816BE100BFBE
:101B30006FF07E439B1A4FF0000C7CEB010380F2A8
:101B400073806FF078439B1A7CEB0103C0F2C68070
:101B500082F000730B4300F0D38182F08062114366
:101B600040F0648340F60040C4F20260D0F8E41014
:101B7000C1F30151DFE811F0AE025E021A02B402B5
:101B800082F400430B4300F0618282F480330B4304
:101B900000F0128282F40032114340F0478340F695
:101BA0000041C4F20261D1F8E800C0F30242042A05
:101BB00000F2CC824BF68030DFE812F058021202BD
:101BC000D60238039A0200BF82F080030B4300F074
:101BD000538282F480730B4300F0088282F4007217
:101BE000114340F0238340F60040C4F20260D0F875
:101BF000E81011F4406100F0A582D0F8F020B1F5B2
:101C0000806F03D112F0006240F08B820268B1F560
:101C1000006F03D112F4806240F0B382D0F8F0007C
:101C2000B1F5406F63E100BF82F480030B4300F025
:101C30003F8282F400030B4300F0EA8182F080725D
:101C4000114340F0F38240F60040C4F20260D0F845
:101C5000E010C1F30141DFE811F038023D02F70165
:101C6000ED0100BF82F480130B4300F0578182F432
:101C70000012114340F0DA8240F60040C4F20260E4
:101C8000D0F8E410490400F1AB81D0F8E010C1F3C2
:101C90008161DFE811F0510125028B01CF0100BF06
:101CA00082F400530B4300F0518182F480421143CF
:101CB00040F0BC8240F60041C4F20261D1F8E40079
:101CC000C0F30222042A00F241824BF68030DFE8A2
:101CD00012F0330251018701AD02410282F000632C
:101CE0000B4300F04D8182F08052114340F09E8200
:101CF00040F60041C4F20261D1F8E800D1F8F020CA
:101D0000920700F4004202D5002A00F0CC80D1F8FE
:101D1000F00000014FF0000040F18882002A00F03E
:101D20008582D1F8F000FEE140F60041C4F2026184
:101D3000D1F8E80000F00700012800F0CB8100286E
:101D400000F060810A68022803D112F4806240F03A
:101D50001882D1F8F020032803D112F0020240F0DB
:101D6000A2800A6804284FF0000000F055825DE26E
:101D700040F60040C4F20260D0F8E01001F0C0016B
:101D8000402900F0A781002900F09F810268802986
:101D900003D112F4806240F0F481D0F8F000C02941
:101DA000A5E000BF40F60040C4F20260D0F8E010A9
:101DB00001F03001102900F08D81002900F08581AB
:101DC0000268202903D112F4806240F0DA81D0F851
:101DD000F00030298BE000BF40F60040C4F2026002
:101DE000D0F8E01001F44071B1F5807F00F072810D
:101DF000002900F06A810268B1F5007F03D112F476
:101E0000806240F0BE81D0F8F000B1F5407F6EE016
:101E100040F60041C4F20261D1F8E00000F44060F5
:101E2000B0F5806F00F05681002800F04E810A68FE
:101E3000B0F5006F03D112F4806240F0A2810A680D
:101E4000B0F5406F4FF0000000F0E681EEE100BF1A
:101E500040F60040C4F20260D0F8E01001F00C013E
:101E6000042900F03781002900F02F810268082939
:101E700003D112F4806240F08481D0F8F0000C2984
:101E800035E000BF40F60040C4F20260D0F8F01028
:101E9000D0F8F02001F44071920740F13B81B1F598
:101EA000807F40F037814FF4004004B080BD00BF18
:101EB00040F60040C4F20260D0F8E01011F4402176
:101EC00000F00381D0F8F020B1F5802F03D112F09B
:101ED000006240F026810268B1F5002F03D112F4B0
:101EE000806240F04E81D0F8F000B1F5402F00F054
:101EF00002024FF0000008BF900304B080BD00BF95
:101F000040F60040C4F20260D0F8E810C1F3C1010D
:101F1000DFE811F07800E0009A00900040F6004001
:101F2000C4F20260D0F8E010C1F38161DFE811F083
:101F30000400D8003E008200006846F6004180049C
:101F4000C0F2DC2101EAE07004B080BD40F600413F
:101F5000C4F20261D1F8E400C0F34212042A00F294
:101F6000F5804BF68030DFE812F0E70005003B001B
:101F70006101F50001A8FFF731FC019804B080BDB4
:101F800040F60040C4F20260D0F8E0100068800320
:101F900001F0407002D5002800F0F380B0F1007F1E
:101FA00000F0CA80B0F1807F40F0D08001A8FFF738
:101FB00091FA029804B080BD40F60041C4F202617B
:101FC000D1F8E40000F00702042A00F2BF804BF6CB
:101FD0008030DFE812F04B000500C9002B018D00B6
:101FE00001A8FFF777FA019804B080BD40F60040E1
:101FF000C4F20260D0F8E810C1F38111DFE801F00B
:10200000026A241A04B0BDE8804000F0CBBD00BFD6
:1020100040F60040C4F20260D0F8E010C1F3015174
:10202000DFE801F00258120804B0BDE8804000F07B
:1020300099BD00BF0168890640F188808168090266
:1020400054D4D0F8F400EFE0006884E040F600419A
:10205000C4F20261D1F8E800C0F30232052A00F2AE
:10206000BB80DFE802F00337B3B9B94504B0BDE87F
:10207000804000F041BD00BF40F60041C4F2026163
:10208000D1F8E00000F44050B0F5805F22D0E0B11C
:102090000A68B0F5005F02D112F4806271D10A685B
:1020A000B0F5405F4FF0000000F0B680BEE000BF2A
:1020B00040F60041C4F20261D1F8E00000F4404073
:1020C000B0F5804F06D0002854D104B0BDE8804060
:1020D00000F028BD04B0BDE8804000F083BD00BF23
:1020E00001A8FFF7B9FA029804B080BD8068A0E0AB
:1020F0000868800600F1938028E000BF026892041F
:1021000046D5B1F5805F43D143F20060C0F26E1056
:1021100004B080BDD0F8F020120147D5B1F5007FA2
:1021200044D1D0F8F000C0004FF0FA0058BF4FF48F
:10213000FA4004B080BD00BF01A8FFF78DFA0198F6
:1021400004B080BD016889063FF578AF002004B077
:1021500080BD00BF086842F200414005C0F2F401B2
:1021600001EAE07004B080BD01A8FFF737FB0298D8
:1021700004B080BD0A68B0F5004F47D112F4806208
:1021800044D042F20040C0F2F40004B080BD00BF71
:102190000068B1F5005F00F480624FF0000004BFFA
:1021A00042F20040C0F2F4000CE000BF0068B1F55C
:1021B000407F00F400324FF0000004BF4AF22010CC
:1021C000C0F20700002A08BF10462FE001A8FFF761
:1021D00043FA039804B080BD00F4E0420B6842F279
:1021E0000040B2F5405FC0F2F40002D113F40033B6
:1021F0001CD1096811F4806118BF0146B2F5804F07
:1022000018BF0021084604B080BD00BF0A68B0F5C1
:10221000404F4FF0000009D112F0200206D088682C
:10222000000205D4D1F8F400000402E004B080BD3F
:102230008868C0F3036045F60841C0F6000151F814
:10224000200004B080BD00002DE9F04F81B00446AD
:10225000006840F6E046C107C4F202661ED181075D
:1022600024D441072AD4010730D4C10636D48106CC
:102270003CD4410642D4010648D4C1054ED44102A3
:1022800054D481055AD4410560D4010566D440F682
:1022900028488004C4F202686DD494E03168226D4D
:1022A00021F00301114331608107DAD53168626D95
:1022B00021F00C01114331604107D4D53168A26D82
:1022C00021F03001114331600107CED53168E26D54
:1022D00021F0C00111433160C106C8D53168226EBA
:1022E00021F44071114331608106C2D5B168626E3C
:1022F00021F007011143B1604106BCD53168A26EDF
:1023000021F44061114331600106B6D53168E26EB7
:1023100021F4405111433160C105B0D5B168226F3D
:1023200021F0C0011143B1604102AAD53168626F4A
:1023300021F44041114331608105A4D5B168A26FF9
:1023400021F440611143B16041059ED53168E26FCF
:1023500021F4402111433160010598D5B168D4F8CA
:10236000802021F440711143B16040F62848800478
:10237000C4F2026827D5D4F890004FEA70110429FE
:1023800028D8DFE801F003130B1B1B0004F1080041
:1023900002F07AF90546B8B90EE000BFD8F800108F
:1023A00041F48031C8F8001008E000BF04F12C00AF
:1023B00002F0E4F9054638B9D4F89000716821F0CC
:1023C000E0010843706000256078400606D4284686
:1023D00029E000BF012560784006F8D5D4F89400C4
:1023E0004FEA3021042939D82846DFE801F0032FCD
:1023F0000B12120004F1080002F046F9074698B9E2
:1024000009E000BFD8F8000040F48030C8F80000B0
:102410002846074640B97068D4F8941020F4E0606C
:102420000843706000202F466178090629D5D4F84A
:10243000A4104FEA3131052900F2C681022911D0DA
:102440000546B0B1A178C9071FD13BE004F12C00CB
:1024500002F094F900280746E6D1DCE701200127C5
:10246000E2E700BF04F1080002F00EF9002805467B
:10247000E8D1B068D4F8A41020F4E0400843B0607C
:1024800000203D46A178C9071CD0D4F88810042943
:1024900000F29281DFE811F00C0006007C010C00D4
:1024A0000C0000BFD8F8001041F48031C8F80010CB
:1024B000074640B97068D4F8881020F00700084338
:1024C000706000202F46A17889071DD5D4F88C10A4
:1024D0004FEA3141042900F27381DFE811F00B006B
:1024E000050063010B000B00D8F8001041F48031A7
:1024F000C8F80010824640B9B068D4F88C1020F4B7
:10250000E0200843B0600020BA46A178490701D412
:10251000574659E0834656F84C0C5FEA40790BD495
:1025200056F84C0C40F0040046F84C0C56F84C0C95
:1025300000F00400009000984FF60047CFF6FF77B8
:1025400058F8070040F0010048F80700FEF748FE81
:10255000054600BF58F80700C00707D1FEF740FE48
:10256000401B0228F6D90320032724E05846BBF17C
:10257000000F5F461FD1306910F4407012D0D4F8BC
:10258000BC1088420BD03069316920F4407041F4AE
:1025900080313161316921F4803131613061C007AE
:1025A00040F01A813069D4F8BC1020F44070084320
:1025B000306100205746B9F1000F05D456F84C1C85
:1025C00021F0040146F84C1CA178C90618D5D4F8AE
:1025D0009C104FEAB161032900F2D080DFE801F0DE
:1025E0000602C20604F1080002F04EF8024640B9A5
:1025F0003068D4F89C1020F0406008433060002020
:102600003A4621680B031DD5D4F8983033B1B3F5A1
:10261000005F18BFB3F5805F40F0B480054658B145
:102620008A0212D40A0222D4CA0129D48A0130D4DF
:10263000490137D459E000BF706820F44050184376
:102640007060002015468A02ECD5D4F8A020B2F5BF
:10265000804F05D1D8F8003043F48033C8F80030FB
:10266000736823F480431A4372600A02DCD532682F
:10267000D4F8B03022F440121A433260CA01D5D5E2
:102680003268D4F8B43022F440321A4332608A01FE
:10269000CED5B268D4F8B83022F018021A43B2602E
:1026A000490122D5D4F8AC10B1F5401F0ED0B1F5D8
:1026B000001F05D1D8F8001041F40031C8F800100F
:1026C000074650B1E178090713D436E004F1080059
:1026D00001F0DAFF00280746F4D17068D4F8AC1096
:1026E00020F440100843706000202F46E17809076D
:1026F00023D5D4F8841059B1B1F1007F10D0B1F1D5
:10270000807F29D1D8F8001041F40031C8F80010BA
:1027100060B1E178C90614D401B0BDE8F08F00BF04
:1027200004F1080001F0B0FF0028F2D13068D4F8BD
:10273000841020F04070084330603846E178C906C4
:10274000EAD5B168D4F8A82021F400411143B16062
:1027500001B0BDE8F08F00BF0120E178C906DBD5EC
:10276000EFE700BFD8F8001041F40031C8F80010BE
:10277000002802467FF445AF3AE700BF012001225E
:102780003FE700BF012001258A027FF54BAF5CE7E0
:1027900004F12C0001F0F2FF002807467FF493AE0D
:1027A00088E600BF04F12C0001F0E8FF0028824613
:1027B0007FF4ABAEA0E600BF0120012783E600BF97
:1027C00001204FF0010AA0E601200125A178C907E8
:1027D0007FF45BAE76E600BFFEF702FD054641F2F0
:1027E000883B0327306980073FF5DCAEFEF7F8FC35
:1027F000411B03205945F5D9DDE600002DE9F04FD6
:1028000081B0002800F01C8142F20008C4F20208E6
:102810000446D8F800000D4600F00F0081420DD9A3
:10282000D8F8000020F00F002843C8F80000D8F8BE
:10283000000000F00F00A84240F00281206840F63E
:102840002049C106C4F202690DD56169D9F8042096
:1028500002F07002914206D9D9F8042022F07002E9
:102860001143C9F8041001070FD52169D9F80020D8
:10287000702303EA1212914207D9D9F8002022F4FA
:10288000E06242EA0111C9F8001041070DD5E16884
:10289000D9F8002002F07002914206D9D9F8002040
:1028A00022F070021143C9F8001081070DD5A1680C
:1028B000D9F8002002F00F02914206D9D9F8002081
:1028C00022F00F021143C9F80010C00774D120682C
:1028D00081070DD5A168D9F8002002F00F029142BE
:1028E00006D2D9F8002022F00F021143C9F80010D7
:1028F000D8F8001001F00F018D420DD2D8F8001069
:1029000021F00F012943C8F80010D8F8001001F099
:102910000F01A94240F0948041070DD5E168D9F834
:10292000002002F07002914206D2D9F8002022F075
:1029300070021143C9F8001001070FD52169D9F8B9
:102940000020702303EA1212914207D2D9F8002026
:1029500022F4E06242EA0111C9F80010C0060DD568
:102960006069D9F8041001F07001884206D2D9F8E4
:10297000041021F070010843C9F8040000F032F996
:10298000D9F8001045F66E3201F00F01C0F60002D2
:10299000525C40F20401C2F20001096840F20803EF
:1029A00020FA02F2C2F2000308461A6001B0BDE844
:1029B000F04FFEF757BC00BF606840F61C47C4F2FA
:1029C000026798B302282BD0032835D1D9F87400B8
:1029D0005FEA407A0BD4D9F8740040F00400C9F8DB
:1029E0007400D9F8740000F0040000900098FEF71D
:1029F000F7FB4FF6F03BCFF6FF7B57F80B10490380
:102A00006AD4BAF1000F05D4D9F8740020F004009C
:102A1000C9F8740057F81C0C800111D5606813E0E8
:102A200057F81C0C80030BD502200DE057F81C0C46
:102A3000400705D5002007E057F81C1C490503D4C2
:102A4000012001B0BDE8F08F396821F0030108438F
:102A50003860FEF7C5FB61680646032941F2883AF3
:102A600033D0022923D069B9386810F00C0F3FF435
:102A70002EAFFEF7B5FB801B50454FF00300F3D996
:102A8000DFE700BF386800F00C0004283FF41FAFF8
:102A9000FEF7A6FB801B50454FF00300F2D9D0E7AC
:102AA000FEF79EFB801B50454FF00300C9D83868E5
:102AB00000F00C000828F3D109E700BFFEF790FBF7
:102AC000801B50454FF00300BBD8386800F00C0065
:102AD0000C28F3D1FBE600BF064600BF57F80B00F9
:102AE00040043FF58EAFFEF77BFB801B02284FF0C2
:102AF0000300F3D9A5E7000080B500F073F840F6B5
:102B00002041C4F20261096845F66E3201F00F01FE
:102B1000C0F60002515CC84040F20801C2F2000158
:102B2000086080BD80B500F05DF840F62041C4F239
:102B300002610A6845F66E3302F00F02C0F6000328
:102B40009A5CD04040F20802C2F2000210600968AC
:102B500045F67E32C1F30211C0F60002515CC84056
:102B600080BD000080B500F03DF840F62041C4F281
:102B700002610A6845F66E3302F00F02C0F60003E8
:102B80009A5CD04040F20802C2F20002106009686C
:102B900045F67E32C1F30221C0F60002515CC84006
:102BA00080BD000080B500F01DF840F62041C4F261
:102BB00002610A6845F66E3302F00F02C0F60003A8
:102BC0009A5CD04040F20802C2F2000210604968EC
:102BD00045F67E32C1F30211C0F60002515CC840D6
:102BE00080BD000040F62841C4F2026151F80C0C8F
:102BF00010F00C02086815D00C2A04BF00F0030086
:102C000001280FD051F80C0C9FED350A00F00C0094
:102C1000042842F20040C0F2F4001DD0082A18BF78
:102C2000002019E051F8200C000205D4D1F8CC00A6
:102C3000C0F3033003E000BF51F8200C000F45F64D
:102C40000843C0F6000353F82000002A00EE100AE3
:102C500018BF0020B8EE400A0C2A18BF7047D1F800
:102C600000C00A680B68C2F303220869013201EE52
:102C7000102AC008B8EE411ADB069FED1B2A00EAB5
:102C8000E3705FEA8C7258BFB0EE402A82EE010A10
:102C90006FF35F3001EE100AC868B8EE411A6FF3A7
:102CA0005F2002EE100A9FED0F3AB8EE422A21EEA5
:102CB000031AC86831EE021AB7EE002AC0F30660A4
:102CC00031EE021A013020EE010A01EE100AB8EED0
:102CD000411A80EE010ABCEEC00A10EE100A7047DD
:102CE00000000000000000390024744B002804BFDD
:102CF000012070472DE9F04381B040F69449044625
:102D0000C4F2026959F8780C59F86C1C227800F06A
:102D10000C07D00601F0030822D42078C00779D030
:102D2000082F73D00C2F08BFB8F1030F6ED040F6F8
:102D30000046C4F2026661683068B1F5803F00F079
:102D4000DF82B1F5A81F00F0D382B1F5A02F40F0CB
:102D5000E98240F480203060306820F48010CDE2B9
:102D600017B30C2F08BFB8F1010F1DD040F6004675
:102D7000C4F20266E1693068002900F0CD8140F0BC
:102D800001003060FEF72CFA054600BF30684007AE
:102D900000F1D481FEF724FA401B02284FF0030013
:102DA000F4D900F03ABD00BFE069002800F0D683F6
:102DB00040F60045C4F20265666AA86800025ABF80
:102DC000D9F860000004A86800F07040864240F224
:102DD0007781002F40F03983D9F80000400700F1D7
:102DE0001983D9F8000040F00400C9F80000D9F8B0
:102DF000000000F0040000900098FEF763FBD9F893
:102E0000001021F00401C9F8001005E360680028F3
:102E100000F0A483207880072FD5042F20D00C2F1A
:102E200008BFB8F1020F1BD040F60046C4F202669C
:102E3000E1683068002900F0378240F4807030602B
:102E4000FEF7CEF9054600BF306840050CD4FEF70A
:102E5000C7F9401B02284FF00300F5D900F0DDBC94
:102E6000E068002800F07A8359F8840C216920F486
:102E7000F81040EA014049F8840C207840F60047F9
:102E80000007C4F2026771D42078400700F1C680C1
:102E90002078800600F128812078000600F1628108
:102EA0002078400600F1AC81A56B002D00F0D284A3
:102EB00059F8780C00F00C000C2840F0618259F8A9
:102EC0006C1C59F8600C012D00F04883E26B01F096
:102ED0000303934240F04283226CC1F30323013A7F
:102EE000934240F03B83626C01F47041914240F0A8
:102EF0003583A26C01466FF35F21013A914240F0A5
:102F00002D83E16CC0F3462201398A4240F02683CA
:102F1000216DC0F3064201398A4240F01F83616D82
:102F2000C0F306600139884240F0188359F85C0C00
:102F3000E16DC0F3CC00884200F08C8459F86C0C31
:102F400020F0100049F86C0CFEF74AF90546FEF730
:102F500047F9A842FBD0E06DC00049F85C0C59F875
:102F60006C0C40F0100000F073BC00BFD9F80000FA
:102F70005FEA40780BD4D9F8000040F00400C9F8AB
:102F80000000D9F8000000F00400009000984FF60F
:102F90002846CFF6FF76B859C00713D1B85940F08C
:102FA0000100B851FEF71CF9054600BFB859C0072B
:102FB00008D1FEF715F9401B0228F7D9032001B00C
:102FC000BDE8F0836069D9F85C10002800F0E28069
:102FD000A06901F08052904200F0328301F040621B
:102FE000B2F1006F00F0BA82490140F12283D9F8B2
:102FF0005C0020F0A050C9F85C00FEF7F1F805462F
:10300000D9F85C00000140F11383FEF7E9F8401B9A
:1030100005284FF00300F3D900F0FFBBD9F80000FA
:103020005FEA40780BD4D9F8000040F00400C9F8FA
:103030000000D9F8000000F00400009000984FF65E
:103040002846CFF6FF76B859C00713D1B85940F0DB
:103050000100B851FEF7C4F8054600BFB859C007D3
:1030600008D1FEF7BDF8401B02284FF00300F5D948
:10307000D3E300BFA068C10740F0A280D9F85C107C
:10308000002821F00101C9F85C10D9F85C1021F08A
:103090000401C9F85C1040F0A180FEF7A1F80546D4
:1030A00041F28836D9F85C00800740F19782FEF73C
:1030B00097F8401BB0424FF00300F3D9ADE300BFD7
:1030C000A868B6F1404F40F40000A860A86820F05E
:1030D000704040EA0600A860C0F0AC80E868216A51
:1030E00020F01F000843F7E1E16A3868002900F08A
:1030F000ED8040F480503860FEF772F8054600BF5E
:10310000386880043FF5C8AEFEF76AF8401B022815
:103110004FF00300F4D980E320F001003060FEF7A7
:103120005FF80546306840077FF5F7ADFEF758F8C1
:10313000401B02284FF00300F4D96EE3B06840F45E
:103140000000B060B168606A21F070410143B0F1E5
:10315000404FB160C0F09880F068216A20F01F00F5
:10316000084337E2216B3868002900F0F78040F40B
:1031700080403860FEF734F8054600BF3868000428
:103180003FF58EAEFEF72CF8401B02284FF00300EF
:10319000F4D942E321F0A050C9F85C00FEF720F812
:1031A000054600BFD9F85C00000140F15F82FEF7E0
:1031B00017F8401B05284FF00300F3D92DE300BF9B
:1031C000D9F85C10400705D541F00400C9F85C004F
:1031D000D9F85C1041F00100C9F85C00FEF700F876
:1031E000054641F2883600BFD9F85C00800731D42B
:1031F000FDF7F6FF401BB0424FF00300F4D90CE39B
:10320000606B002800F0F280B86840F40000B860FD
:10321000B968D4E9090221F07061B0F1404F41EA88
:103220000201B960C0F04481F868216A20F01F00F3
:103230000843DFE2B6F1FF3F40F32881E968206AE6
:10324000B6F1804FC0F0448121F4F84141EA80207A
:1032500042E100BFA168D9F85C00090600F1B28024
:1032600020F0800041F28836C9F85C00D9F85C0093
:10327000000540F1B881FDF7B3FF401BB0424FF0AD
:103280000300F3D9C9E200BFB0F1FF3F40F3728100
:10329000F268216AB0F1804FC0F0988122F4F840C2
:1032A00040EA812096E100BF20F480703060FDF795
:1032B00097FF0546306840057FF5DFADFDF790FFCD
:1032C000401B02284FF00300F4D9A6E220F48050FE
:1032D0003860FDF785FF0546386880047FF5DCAD72
:1032E000FDF77EFF401B02284FF00300F4D994E263
:1032F00040F480203060306840F4801030603068E6
:1033000040F480303060FDF76BFF05463068800385
:103310003FF580ADFDF764FF401B64284FF00300CC
:10332000F4D97AE220F4803030603068002920F44B
:1033300080203060306820F480103060E3D1FDF7E9
:103340004FFF0546306880037FF564ADFDF748FF09
:10335000401B64284FF00300F4D95EE220F4804063
:103360003860FDF73DFF0546386800047FF598ADED
:10337000FDF736FF401B02284FF00300F4D94CE262
:10338000386820F080703860FDF72AFF022D05466E
:103390000CD13868800140F17581FDF721FF401B99
:1033A00002284FF00300F4D937E200BF38688001EB
:1033B00040F1F681FDF714FF401B02284FF0030097
:1033C000F4D92AE240F0800041F28836C9F85C0066
:1033D000D9F85C00000500F10681FDF701FF401BF4
:1033E000B0424FF00300F3D917E200BF386820F075
:1033F00010003860FDF7F4FE054600BF386880060F
:103400007FF552ADFDF7ECFE401B02284FF00300A4
:10341000F4D902E2FEF756F820F48031B1F5003F0E
:103420003CD10021B6F1805F38BF012142F200009B
:10343000C4F20200026822F00F020A44026000682F
:1034400000F00F00884240F08980A86840F4000036
:10345000A860A968606A21F070410143B0F1404F53
:10346000A96005D3E868216A20F01F0008438DE0B9
:10347000B0F1FF3F76DDEA68216AB0F1804FC0F01D
:10348000818022F4F84040EA81207FE0E868216AE8
:1034900020F4787040EA41101EE000BF0021B1EB3B
:1034A000167F40F0AD80B0F5803F57D10321BDE7D6
:1034B000B0F1FF3F40F37C81FA68216AB0F1804FA0
:1034C000C0F0948122F4F84040EA812092E100BFEC
:1034D00021F4782141EAC030002FE86057D1D9F8B3
:1034E0000000400714D4D9F8000040F00400C9F8E7
:1034F0000000D9F8000000F0040000900098FDF7EB
:10350000E1FFD9F8001021F00401C9F8001001E032
:10351000FDF7D8FF20F48031B1F5003F14D1002130
:10352000B6F1805F38BF012142F20000C4F2020010
:10353000026822F00F020A440260006800F00F00E7
:10354000884224D00AE000BF0021B1EB167F63D18E
:10355000B0F5803F02D10321E6E700BF012001B0B2
:10356000BDE8F083E868216A20F4787040EA4110F1
:103570000CE000BFF068216A20F4787040EA411046
:1035800028E000BF22F4782040EAC130E860FFF76D
:1035900029FB59F8741C45F66E3201F00F01C0F694
:1035A0000002515C40F2080220FA01F140F20400EE
:1035B000C2F200000068C2F200021160FDF752FE84
:1035C000002840F02A81FFF7A8BB00BF22F4782032
:1035D00040EAC130F060FFF7A0BB00BFD9F85C0043
:1035E000000600F1ED80B8F1000F3FF551ACD9F8BD
:1035F000000020F00400C9F80000FFF749BC00BF3C
:10360000B6F1005F40F20C8100287FF40FAFB6F1F5
:10361000405F98BF012109E7B6F1005F40F20A81DF
:1036200000287FF481AFB6F1405F98BF01217BE7AE
:10363000A069D9F85C1021F080510843C9F85C00FA
:10364000D9F85C0040F08060C9F85C00FDF7C8FD67
:10365000054600BFD9F85C00000107D4FDF7C0FDA6
:10366000401B05284FF00300F4D9D6E0B8F1000F55
:103670003FF50AACD9F8000020F00400C9F80000BA
:10368000FFF702BCD9F800005FEA407C0BD4D9F800
:10369000001041F00401C9F80010D9F8001001F041
:1036A0000401009100994FF60C48CFF6FF7857F8C7
:1036B00008E057F808304FF6037623F4802347F8E4
:1036C000083059F86C3CD4E91102B343D4E90F65D2
:1036D0006FF0FF013343184301EB05214FF47E43A4
:1036E000084349F86C0C59F8600C0021C8F28001BD
:1036F0000840511EE26C4FF4FE0503EB4222236D9D
:103700006FF35F2105EB0343656D92B24FF0FE4608
:1037100006EB0565084403F4FE03104405F0FE457E
:103720001844284449F8600C59F86C0C20F010003B
:1037300049F86C0CE06DC00049F85C0C59F86C0C51
:1037400040F0100049F86C0C59F86C0CA16D20F099
:103750000C0008435FEA4E3149F86C0C05D557F868
:10376000080040F4802047F80800BCF1000F05D4A1
:10377000D9F8000020F00400C9F80000386840F0D3
:1037800080703860FDF72CFD0446386880015BD4FA
:10379000FDF726FD001B02284FF00300F5D93CE0A1
:1037A00059F86C0C4FF6FC71CFF6F87108404FE0F9
:1037B000F868216A20F4787040EA41101AE000BFEE
:1037C000D9F85C0041F2883620F08000C9F85C002E
:1037D000D9F85C0000057FF506AFFDF701FD401B41
:1037E000B0424FF00300F3D917E000BF22F4782075
:1037F00040EAC130F860386840F010003860FDF7EA
:10380000EFFC0546386880063FF54EABFDF7E8FC57
:10381000401B02284FF00300F4D901B0BDE8F0834B
:10382000B6F1805F1AD10221B0F5803F08BF0121B7
:10383000FCE500BFB6F1805F12D10221B0F5803FF8
:1038400008BF012170E600BF59F86C0C40F48020DD
:1038500049F86C0C002001B0BDE8F0830121E5E5DA
:10386000012161E6042888BF7047DFE800F0031BF0
:1038700013352D004EF21000CEF20000016821F049
:103880000401016040F6E040C4F20260016821F4E6
:10389000400120E04EF21000CEF20000016802224A
:1038A00006E000BF4EF21000CEF2000001680122D7
:1038B00021F00401016040F6E040C4F202600168BA
:1038C00062F3975107E000BF4EF21000CEF2000005
:1038D000016841F00401016070470000411E0020B2
:1038E000B0EB116F1CBF012070474EF21002CEF2F8
:1038F000000251609060116841F00301116070474F
:103900004EF21000CEF200000068400744BF0420D1
:10391000704740F6E040C4F20260006802A1C0F3C4
:10392000815051F8200070470000000001000000A5
:10393000020000000000000090F88410012904BF7C
:10394000022070472421C0F8881001680A680B68BB
:1039500022F0005223F001030B60002343660A604B
:103960002021C0F8881080F88430002070470000C3
:10397000006F7047D0F88C30202B1CBF022070479E
:1039800010B5044600294FF0010018BF002A01D1EC
:1039900010BD00BFE06600202067204601F0A6FBB6
:1039A0000028F5D1E06E01281CBF012010BD206861
:1039B00010210162206850E8000F216840F01000DB
:1039C00041E80002F2B1206850E8000F216840F0A1
:1039D000100041E80002AAB1206850E8000F2168F9
:1039E00040F0100041E8000262B1206850E8000F8A
:1039F000216840F0100041E800020020002A08BFC2
:103A000010BDD7E7002010BDF0B581B040F2982777
:103A1000C2F20007B84201D001B0F0BD0D46FFF779
:103A2000A7FF0128F8D040F27006C2F20006DDB10F
:103A300040F6654040F66551C2F20000C2F2000156
:103A4000B5F5807F28BF4FF4807500BFF288B3883A
:103A500001326FF3DF229A420AD010F8013BF4885A
:103A6000013D0B55F280F1D1D7F8800030B912E05A
:103A7000F0680130F060D7F8800060B138681F212D
:103A8000016240F66541C2F2000138464FF480728F
:103A9000FFF770FF30B101207070B0680130B06086
:103AA00001B0F0BDD7F880000068416921F40071D1
:103AB000416101B0F0BD00007047000090F8842023
:103AC000012A04BF02207047B0B52422C0F8882024
:103AD0000268D0F864E0D2F800C01368BEF1000FAD
:103AE00023F001031360936823F0606341EA03014C
:103AF000916019D09368916845F6604E490FC0F601
:103B0000000E45F668451EF80140C0F60005C3F3F7
:103B10004263695CE400B4FBF1F11EF80340EB5C26
:103B2000E500B5FBF3F301E001210123A0F86A10E1
:103B30002021A0F86830C2F800C0C0F88810002129
:103B400080F884100020B0BD90F88420012A04BFC2
:103B500002207047B0B52422C0F888200268D0F84F
:103B600064E0D2F800C01368BEF1000F23F0010337
:103B70001360936823F0604341EA0301916019D018
:103B80009368916845F6604E490FC0F6000E45F601
:103B900068451EF80140C0F60005C3F34263695C46
:103BA000E400B4FBF1F11EF80340EB5CE500B5FB6B
:103BB000F3F301E001210123A0F86A102021A0F80D
:103BC0006830C2F800C0C0F88810002180F8841066
:103BD0000020B0BD7047000010B540F29824C2F23A
:103BE0000004A04218BF10BD01681F200862D4F86D
:103BF000801059B121684FF48072086240F6654127
:103C0000C2F200012046FFF7B5FE48B140F2700055
:103C1000C2F200000121417081680131816010BD54
:103C2000D4F880000068416921F40071416110BD41
:103C300070B5026840F62F04D369116896681C407D
:103C4000202C0BD101F0200406F080552D1916D040
:103C5000416F61B3BDE87040084700BF40F60F05F3
:103C60002B420CD00125C1F2000506EA050C40F2FA
:103C70002015C0F200450D4015EB0C0556D1C46E61
:103C8000DD0615D5012C13D111F0100510D010212F
:103C900011629168490655D4B0F85C10B0F85E2006
:103CA000B0F85E30002B18BF914240F00B8270BD1F
:103CB0001A0606D501F0800206F40006921940F0BB
:103CC000F3805A0640F1D88011F0400200F0D48011
:103CD000016851E8001F026821F0400142E800132A
:103CE000DBB1016851E8001F026821F0400142E8A1
:103CF000001393B1016851E8001F026821F04001F0
:103D000042E800134BB1016851E8001F026821F03E
:103D1000400142E80013002BDAD12021C0F88810BE
:103D200000218167BDE8704000F08EBCDD0718BF40
:103D300011F4807540F0CC809D0706F0010E00F173
:103D4000D380DCE0D0F8802011688B6CB0F85C4048
:103D500099B2002900F09A80A14280F09780A0F8E3
:103D60005E30116D81297BD0016851E8001F026827
:103D700021F4807142E80013BBB3016851E8001FD1
:103D8000026821F4807142E8001373B3016851E8BE
:103D9000001F026821F4807142E800132BB3016810
:103DA00051E8001F026821F4807142E80013002BE3
:103DB000DAD11AE0016851E8021F026821F001011E
:103DC00042E80213DBB1016851E8021F026821F0EA
:103DD000010142E8021393B1016851E8021F026831
:103DE00021F0010142E802134BB1016851E8021FC2
:103DF000026821F0010142E80213002BDAD12021F0
:103E0000C0F88C100021C166016851E8001F0268EB
:103E100021F0100142E80013DBB1016851E8001FF6
:103E2000026821F0100142E8001393B1016851E8E3
:103E3000001F026821F0100142E800134BB1016835
:103E400051E8001F026821F0100142E80013002B26
:103E5000DAD1D0F8801004460846FCF741FC204631
:103E600002210167B0F85C10B0F85E20891A89B2AF
:103E7000BDE87040FFF7C8BD1A021DD511F08042A1
:103E80001AD0BDE87040FFF7A5BE00BF8C427FF49A
:103E90000EAF126D812A7FF40AAF02220267BDE8DD
:103EA0007040FFF7B1BD00BF816F00293FF4FFAE46
:103EB000BDE87040084700BFDA017FF5F8AEB1F108
:103EC000FF3FC8BF70BDBDE87040FFF7F5BD00BF44
:103ED00001251562D0F8905045F00105C0F89050CA
:103EE0009D0706F0010E0AD5BEF1000F07D002248F
:103EF0001462D0F8904044F00404C0F890405C078D
:103F00000AD5BEF1000F07D004251562D0F89050F5
:103F100045F00205C0F890501D070CD501F02005B2
:103F200055EA0C0507D008251562D0F8905045F0E9
:103F30000805C0F890501D050BD511F0806508D01C
:103F40004FF400651562D0F8905045F02005C0F898
:103F50009050D0F89050002D3FF4A9AE9B060BD5A1
:103F600001F0200106F08053C91805D0416F19B146
:103F70000446884722682046D0F89010926801F0E5
:103F8000280102F04002891806D10446FFF724FEFA
:103F90000020C4F8900070BD016851E8001F02685D
:103FA00021F4907142E80013DBB1016851E8001F71
:103FB000026821F4907142E8001393B1016851E85E
:103FC000001F026821F4907142E800134BB10168B0
:103FD00051E8001F026821F4907142E80013002BA1
:103FE000DAD14FF6FE71CEF6FF7100BF026852E8DB
:103FF000022F03680A4043E80226C6B1026852E86D
:10400000022F03680A4043E8022686B1026852E89C
:10401000022F03680A4043E8022646B1026852E8CC
:10402000022F03680A4043E80226002EDED1C16E4B
:10403000012924D1016851E8001F026821F0100114
:1040400042E80013DBB1016851E8001F026821F06B
:10405000100142E8001393B1016851E8001F0268A3
:1040600021F0100142E800134BB1016851E8001F34
:10407000026821F0100142E80013002BDAD1202160
:10408000C0F88C100021C16602684167916849063A
:1040900040F19880D0F88010002900F0938044F619
:1040A0002532C0F6000204460846CA66FCF76CFBDF
:1040B00000283FF4FCADD4F88000C16EBDE870402C
:1040C000084700BF891A00BF026852E8002F036842
:1040D00022F4907243E80026DEB1026852E8002F15
:1040E000036822F4907243E8002696B1026852E811
:1040F000002F036822F4907243E800264EB1026854
:1041000052E8002F036822F4907243E80026002E44
:10411000DAD14FF6FE72CEF6FF7200BF036853E8A5
:10412000023F0668134046E80235C5B1036853E80C
:10413000023F0668134046E8023585B1036853E83C
:10414000023F0668134046E8023545B1036853E86C
:10415000023F0668134046E80235002DDED12022DA
:10416000C0F88C200022C266426700BF026852E895
:10417000002F036822F0100243E80026DEB1026837
:1041800052E8002F036822F0100243E8002696B19F
:10419000026852E8002F036822F0100243E800266C
:1041A0004EB1026852E8002F036822F0100243E883
:1041B0000026002EDAD1022289B20267BDE87040E3
:1041C000FFF722BCBDE87040FFF706BD10B5D8B1BF
:1041D0000446D0F8880028B9002084F884002046DE
:1041E00000F026F82420C4F888002068A16A02683C
:1041F000002922F0010202601CBF204600F068FB8B
:10420000204600F06DFE08B1012010BD216848680D
:1042100020F490404860886820F02A008860086890
:1042200040F0010220460A60BDE8104000F0C4BB27
:104230002DE9F047B6B0044600203490CDE93200B5
:10424000CDE930006846C021FCF73BF9206843F215
:10425000FF71C4F2010188423CDC44F60001C4F263
:104260000001884278D044F60041C4F2000188423F
:1042700040F04D8100240825684601940095FDF723
:10428000E3FF002818BFFCF7B7F940F68C40C4F2F2
:104290000260016941F400210161016901F400211A
:1042A00035913599016841F001010160006830A93C
:1042B00000F0010035903598032030900220CDE9C0
:1042C00031040020C4F20220CDE93345FCF766FE3C
:1042D000402414E143F60001C4F20101884200F0D9
:1042E000DD8042F20041C4F20061884240F00F815B
:1042F00020200024009068460194FDF7A5FF0028C7
:1043000018BFFCF779F940F68C40C4F20260C1692D
:1043100041F04001C161C16901F040013591359919
:10432000016841F004010160006830A900F0040058
:1043300035903598032030900220CDE931040820D3
:1043400034900020C4F2022000F500603394FCF7A2
:1043500025FE4224D3E000BF0420002700906846D9
:104360000197FDF771FF002818BFFCF745F940F6EB
:104370008C46C4F20266306940F2500840F4802056
:104380003061306930A900F480203590359830686C
:10439000C4F2020840F001003060306800F0010013
:1043A00035903598A02030900220CDE931070720C4
:1043B00034900020C4F202203397FCF7EFFD3F2039
:1043C00000210022FCF7C4FF3F20FCF7AFFF56F8A6
:1043D000040C40F2800540F0010046F8040C56F849
:1043E000040CC2F2000500F00100359035981C2045
:1043F0004FF40021C5E900804FF001092846C5E9C6
:104400000277C5E90471C5E90677C5E90879C5E908
:104410000A97C5E90C77FCF79FFA002818BFFCF74C
:10442000EBF81D2000210022C4F88050EC654FF00D
:104430001D0A0027FCF78CFF1D20FCF777FF56F8BC
:10444000040C40F2F80540F0010046F8040C56F860
:10445000040CC2F2000500F001003590359808F117
:1044600080004FF480610822C5E9000A2846C5E9AA
:104470000271C5E90427C5E90677C5E90879C5E9E8
:104480000A97C5E90C77FCF767FA002818BFFCF714
:10449000B3F8E567EC651E2431E000BF012000247D
:1044A000009068460194FDF7CFFE002818BFFCF786
:1044B000A3F840F68C40C4F20260816941F4804167
:1044C0008161816901F4804135913599016841F03C
:1044D00001010160006830A900F0010035903598B5
:1044E0004FF4C06030900220CDE9310407203490B1
:1044F0000020C4F202203394FCF750FD3D242046F6
:1045000000210022FCF724FF2046FCF70FFF36B005
:10451000BDE8F0877047000070470000D0F8883091
:10452000202B07D100294FF0010318BF002A05D125
:104530001846704702231846704700BFB0B50023E5
:1045400021240165A0F85420A0F85620C0F890302E
:10455000C0F88840D0F87CC0D0F800E04024BCF11E
:10456000000FCEF8204060D044F6756444F6D9655B
:10457000C0F60004C0F60005CCE91845856844F68D
:104580003134C0F60004B5F5805FCCF86840CCF853
:104590006C3004D10369B3FA83F35B099A409CF849
:1045A00050301B060AD493B204460EF1280260462E
:1045B000FCF7A0FC0028204611D136E0DCF874306E
:1045C0006BB11B685BB1044690B208330EF1280250
:1045D00007C36046FCF720F80028204625D01021AC
:1045E000C0F890102021C0F888100123BDE8B04029
:1045F00018467047016851E8021F026841F08001C7
:1046000042E80213DBB1016851E8021F026841F081
:10461000800142E8021393B1016851E8021F026869
:1046200041F0800142E802134BB1016851E8021FDA
:10463000026841F0800142E80213002BDAD1002326
:10464000BDE8B04018467047006844F60001C4F267
:104650000001884218BF704740F27000C2F20000AB
:10466000002101707047000070470000FEE7000065
:1046700040F27010C2F20000FFF7DABAFEE7000065
:10468000FEE700007047000070B540F62C46C4F20B
:10469000026656F82C1C044621F0806046F82C0C6B
:1046A000FCF79EFD054600BF56F82C0C000105D511
:1046B000FCF796FD401B0228F6D95CE0306840F616
:1046C0000371884394E80E106FF0FF0505EB02229A
:1046D00008431043306030690021C8F2800100EACD
:1046E000010E591E4FF47E42236902EB4C224FF417
:1046F000FE0505EB034365696FF35F2192B24FF04E
:10470000FE4000EB0560714403F4FE03114400F029
:10471000FE401944084430613068A16920F00C0063
:1047200008433060206A31680843306030684FF6D3
:10473000F87120F0100030607069E269884340EA47
:10474000C2007061306840F01000306056F82C0CE8
:1047500040F0806046F82C0CFCF742FD044600BF98
:1047600056F82C0C000144BF002070BDFCF738FD4A
:10477000001B0328F4D3032070BD000070B540F681
:104780003046C4F2026656F8301C044621F08050D0
:1047900046F8300CFCF724FD054600BF56F8300CF7
:1047A000800005D5FCF71CFD401B0228F6D95CE013
:1047B000306840F60371884394E80E106FF0FF05EF
:1047C00005EB022208431043306070690021C8F2F3
:1047D000800100EA010E591E4FF47E42236902EB6C
:1047E0004C224FF4FE0505EB034365696FF35F212F
:1047F00092B24FF0FE4000EB0560714403F4FE03FB
:10480000114400F0FE401944084470613068A16909
:1048100020F00C0008433060206A316808433060A3
:1048200030684FF6F87120F010003060B069E2692E
:10483000884340EAC200B061306840F01000306048
:1048400056F8300C40F0805046F8300CFCF7C8FCAD
:10485000044600BF56F8300C800044BF002070BDF5
:10486000FCF7BEFC001B0328F4D3032070BD00003E
:1048700070470000FCF7BABC4EF6885CCEF2000C24
:10488000DCF80010012241F47001CCF8001040F671
:104890000041C4F202610A600022CA610A624A62EF
:1048A0000B684FF6FF70CEF6F620184008608A625B
:1048B000086820F4802008604FF000600A654CF81A
:1048C000800C704740F22C30C2F20000FFF7B0B904
:1048D000816A0A070CD4CA0715D18A071ED44A0771
:1048E00027D4CA0630D48A0639D44A0642D457E0BF
:1048F0000268D0F838C0536823F4004343EA0C033D
:104900005360CA07E9D00268D0F82CC0536823F47A
:10491000003343EA0C0353608A07E0D50268D0F8FD
:1049200030C0536823F4803343EA0C0353604A07D2
:10493000D7D50268D0F834C0536823F4802343EA03
:104940000C035360CA06CED50268D0F83CC0936809
:1049500023F4805343EA0C0393608A06C5D50268AA
:10496000D0F840C0936823F4005343EA0C039360EB
:104970004A0615D5D0F800C0436CDCF80420B3F526
:10498000801F22F4801242EA0302CCF8042007D1EF
:10499000DCF80420836C22F4C0021A43CCF8042013
:1049A000090658BF70470168C06C4A6822F40022AB
:1049B0001043486070470000B0B582B00446002044
:1049C000C4F89000FCF70CFC216805460A68120741
:1049D00037D56FF07E4C20464FF4001100222B4655
:1049E000CDF800C000F046FC50B300BF206850E88E
:1049F000000F216820F0800041E80002DAB1206851
:104A000050E8000F216820F0800041E8000292B1D8
:104A1000206850E8000F216820F0800041E8000283
:104A20004AB1206850E8000F216820F0800041E87A
:104A30000002002ADAD10320202188226BE000BF87
:104A40002168086840075DD56FF07E4C20464FF422
:104A5000800100222B46CDF800C000F00BFC00289E
:104A600050D000BF206850E8000F216820F49070FB
:104A700041E80002BAB3206850E8000F216820F432
:104A8000907041E8000272B3206850E8000F21687E
:104A900020F4907041E800022AB3206850E8000F2B
:104AA000216820F4907041E80002002ADAD11AE06F
:104AB000206850E8020F216820F0010041E802025E
:104AC000DAB1206850E8020F216820F0010041E8C7
:104AD000020292B1206850E8020F216820F0010024
:104AE00041E802024AB1206850E8020F216820F034
:104AF000010041E80202002ADAD1032020218C22A1
:104B000009E000BF2020C4F88800C4F88C00002110
:104B100070220020E166A150002184F8841002B0C8
:104B2000B0BD0000C06D0021A0F85E10FFF754B8C2
:104B3000C06D0268D0F88830D0F88CC09168090642
:104B400053D5212B51D10021A0F85610016851E80E
:104B5000001F026821F0C00142E80013BBB30168E6
:104B600051E8001F026821F0C00142E8001373B34E
:104B7000016851E8001F026821F0C00142E80013FB
:104B80002BB3016851E8001F026821F0C00142E820
:104B90000013002BDAD11AE0016851E8021F026805
:104BA00021F4000142E80213DBB1016851E8021F61
:104BB000026821F4000142E8021393B1016851E850
:104BC000021F026821F4000142E802134BB10168A0
:104BD00051E8021F026821F4000142E80213002B91
:104BE000DAD12021C0F8881002689168490640F1A6
:104BF0008480BCF1220F40F080800021A0F85E107C
:104C0000016851E8001F026821F4907142E8001326
:104C1000DBB1016851E8001F026821F4907142E89D
:104C2000001393B1016851E8001F026821F49071EC
:104C300042E800134BB1016851E8001F026821F4FB
:104C4000907142E80013002BDAD14FF6FE7CCEF6CD
:104C5000FF7C00BF026852E8022F036802EA0C02E0
:104C600043E80221D9B1016851E8021F026801EA54
:104C70000C0142E8021393B1016851E8021F026877
:104C800001EA0C0142E802134BB1016851E8021F2E
:104C9000026801EA0C0142E80213002BDAD1C16E6E
:104CA000012924D1016851E8001F026821F0100198
:104CB00042E80013DBB1016851E8001F026821F0EF
:104CC000100142E8001393B1016851E8001F026827
:104CD00021F0100142E800134BB1016851E8001FB8
:104CE000026821F0100142E80013002BDAD12021E4
:104CF000C0F88C100021C1664167D0F8901041F0D7
:104D00001001C0F89010FEF767BF0000026D8446E6
:104D1000C06D812A79D00022A0F85E20026852E896
:104D2000002F036822F4807243E80021B9B30168C0
:104D300051E8001F026821F4807142E8001373B348
:104D4000016851E8001F026821F4807142E80013F5
:104D50002BB3016851E8001F026821F4807142E81A
:104D60000013002BDAD11AE0016851E8021F026833
:104D700021F0010142E80213DBB1016851E8021F92
:104D8000026821F0010142E8021393B1016851E881
:104D9000021F026821F0010142E802134BB10168D1
:104DA00051E8021F026821F0010142E80213002BC2
:104DB000DAD12021C0F88C10C16E012925D100BFA5
:104DC000016851E8001F026821F0100142E8001359
:104DD000DBB1016851E8001F026821F0100142E8D0
:104DE000001393B1016851E8001F026821F010011F
:104DF00042E800134BB1016851E8001F026821F03E
:104E0000100142E80013002BDAD100220267C16EC4
:104E1000012918BFFFF77EBBA0F85E20DCF8001068
:104E20008A6CB0F85C1093B28B4238BFA0F85E2059
:104E3000B0F85E20891A89B2FEF7E6BD0146C06D62
:104E400001220267C26E012A18BFFFF765BBB0F8E6
:104E50005C205308A0F85E300968896C8BB29342DD
:104E600098BFA0F85E10B0F85E10511A89B2FEF734
:104E7000CBBD0000016DC06D812908BFFFF7E4BB09
:104E80000021A0F8561013E0016851E8001F0268E5
:104E900041F0400142E80013002B08BF7047016851
:104EA00051E8001F026841F0400142E8001393B14D
:104EB000016851E8001F026841F0400142E8001318
:104EC0004BB1016851E8001F026841F0400142E81F
:104ED0000013002BD8D17047C06DFFF7C5BB000091
:104EE00070B504462269D4E902130068114362696F
:104EF000E6690568114346F6F312CCF6FF722A40C4
:104F000011433143016041684FF2FF4521F44051A4
:104F10001943416042F20041A26940F08053C5F25A
:104F200000618B421CBF236A1A438368C1F2FF15DC
:104F30002B401A438260C26A636A22F00F021A434E
:104F400044F6FF73C4F200039842C2621ADD42F2D3
:104F5000FF32C4F20062904230DC45F20001C4F23C
:104F60000001884200F07E8043F60001C4F2010196
:104F7000884257D101200021FCF7F2FCB6F5004F22
:104F800033D056E044F20041C4F20001884225D0FB
:104F900044F60001C4F20001884200F09D8044F60E
:104FA0000041C4F2000188423CD108200021FCF7F6
:104FB000D7FCB6F5004F18D03BE000BF42F20042EC
:104FC000C4F20062904255D088422BD100200021CB
:104FD000FCF7C6FC002853D142E000BF02200021AC
:104FE000FCF7BEFCB6F5004F23D1C8B3616A45F6A5
:104FF0004842C0F6000232F811106268B0FBF1F0CE
:10500000510801EB4000B0FBF2F04FF6EF72A0F157
:105010001001914258D84FF6F071C0F34202084097
:1050200010441BE000200021FCF79AFCB6F5004F6D
:10503000DBD0A8B1616A45F64842C0F6000232F8FA
:1050400011106268B0FBF1F000EB5200B0FBF2F01F
:105050004FF6EF72A0F11001914235D82168C86077
:10506000002032E010200021FCF77AFCB6F5004F5A
:10507000DFD1BAE720200021FCF772FC0028EFD036
:10508000616A45F64842C0F6000232F811106268C3
:10509000B0FBF1F102EB420081424FF0010014D36A
:1050A0001303994211D808020B0E10EB520043F182
:1050B00000010023FBF748F94FF60052A0F54071BC
:1050C000C0F20F029142C9D301204FF00111A16635
:1050D0000021C4E91D1170BD04200021FCF740FC33
:1050E000B6F5004F3FF481AFA3E70000B0B500254F
:1050F00004468165A0F85C20C0F890502220C4F8D6
:105100008C00D4F8800000283ED044F60D5C44F6B4
:105110003D6EC0F6000CC0F6000EA368C0E918CEC4
:1051200044F6313CC0F6000CB3F5805FC0F868C0AF
:10513000C56604D12369B3FA83F35B099A4090F8FA
:1051400050301B060AD4256893B205F1240C0A4698
:105150006146FBF7CFFE78B916E000BF436F5BB145
:105160001B684BB192B225689A6005F12402C3E92D
:105170000321FBF751FA38B11020C4F89000202029
:10518000C4F88C000120B0BD206928B3206850E825
:10519000000F216840F4807041E80002E2B120680D
:1051A00050E8000F216840F4807041E800029AB195
:1051B000206850E8000F216840F4807041E8000248
:1051C00052B1206850E8000F216840F4807041E837
:1051D0000002002ADAD100BF206850E8020F2168DF
:1051E00040F0010041E80202BAB3206850E8020F23
:1051F000216840F0010041E8020272B3206850E8E3
:10520000020F216840F0010041E802022AB3206841
:1052100050E8020F216840F0010041E80202002A34
:10522000DAD11AE0206850E8020F216840F040000F
:1052300041E80202DAB1206850E8020F216840F02C
:10524000400041E8020292B1206850E8020F216854
:1052500040F0400041E802024AB1206850E8020FE5
:10526000216840F0400041E80202002ADAD1002023
:10527000B0BD00002DE9F041804600681546C269C6
:105280000E461140891BB1FA81F149098D4223D1A3
:10529000069C2CB3611C29D1C1693140891BB1FA2C
:1052A00081F149098D4217D1C1693140891BB1FA99
:1052B00081F149098D420FD1C1693140891BB1FA91
:1052C00081F149098D4207D1C1693140891BB1FA89
:1052D00081F149098D42DFD00020BDE8F08100BF97
:1052E000FBF77EFF0320BDE8F08100BF1F4607E00B
:1052F000C0693040801BB0FA80F040098542EBD194
:10530000FBF76EFFC01BA04284BF0320BDE8F08105
:10531000D8F8000001684907EAD5402E18BF802E52
:10532000E6D0C169090700F1A180C1690905DFD58F
:105330004FF400610162D8F8000050E8000FD8F87F
:10534000001020F4907041E800020AB3D8F8000081
:1053500050E8000FD8F8001020F4907041E80002E7
:10536000B2B1D8F8000050E8000FD8F8001020F4CF
:10537000907041E800025AB1D8F8000050E8000FE0
:10538000D8F8001020F4907041E80002002AD2D131
:105390004FF6FE70CEF6FF70D8F8001051E8021FED
:1053A000D8F80020014042E80213F3B1D8F8001009
:1053B00051E8021FD8F80020014042E80213A3B1CF
:1053C000D8F8001051E8021FD8F80020014042E848
:1053D000021353B1D8F8001051E8021FD8F800208A
:1053E000014042E80213002BD6D1D8F86C00012806
:1053F0002CD1D8F8000050E8000FD8F8001020F0A9
:10540000100041E800020AB3D8F8000050E8000F8D
:10541000D8F8001020F0100041E80002B2B1D8F82E
:10542000000050E8000FD8F8001020F0100041E80C
:1054300000025AB1D8F8000050E8000FD8F8001068
:1054400020F0100041E80002002AD2D120200021E3
:10545000C8F88C00C8F86C10C8F87410C8F8900030
:10546000032088F88410BDE8F08100BF08210162A4
:10547000D8F8000050E8000FD8F8001020F4907021
:1054800041E800020AB3D8F8000050E8000FD8F84D
:10549000001020F4907041E80002B2B1D8F800008A
:1054A00050E8000FD8F8001020F4907041E8000296
:1054B0005AB1D8F8000050E8000FD8F8001020F4D6
:1054C000907041E80002002AD2D14FF6FE70CEF66D
:1054D000FF70D8F8001051E8021FD8F800200140F2
:1054E00042E80213F3B1D8F8001051E8021FD8F8CF
:1054F0000020014042E80213A3B1D8F8001051E89F
:10550000021FD8F80020014042E8021353B1D8F836
:10551000001051E8021FD8F80020014042E80213B1
:10552000002BD6D1D8F86C0001282CD1D8F8000077
:1055300050E8000FD8F8001020F0100041E80002F9
:105540000AB3D8F8000050E8000FD8F8001020F097
:10555000100041E80002B2B1D8F8000050E8000F96
:10556000D8F8001020F0100041E800025AB1D8F835
:10557000000050E8000FD8F8001020F0100041E8BB
:105580000002002AD2D12020C8F88C000020082177
:10559000C8F86C00C8F87400C8F8901088F8840047
:1055A0000120BDE8F081000040F20420C2F20000BA
:1055B000FEF73EBB40F29820C2F20000FEF738BB77
:1055C000FEE70000A0B0FBF71FFE08A804305C2136
:1055D000FAF777FF00200024FBF7F6FE10B172B651
:1055E000FEE700BF022008904FF480700B9010205F
:1055F0000C9008A81694FDF779FB18B172B600BF9D
:10560000FEE700BF1F20029001200390002402A8A3
:105610000121CDE90444CDE90644FDF7EFF818B1C6
:1056200072B600BFFEE700BF40F68C40C4F20260D5
:10563000016842F2004241F0040101600168C4F2D5
:10564000006201F004010891089901680C2341F0FF
:105650000101016000684FF4E13100F001000890A1
:10566000089840F27010C2F20000C0E90021C0E9C1
:105670000244C0E904438461C0E90844846244668A
:10568000FEF7A4FD10B172B6FEE700BF40F2701045
:10569000C2F200000021FEF757FA18B172B600BF3F
:1056A000FEE700BF40F27010C2F200000021FEF7DA
:1056B00005FA18B172B600BFFEE700BF40F27010E5
:1056C000C2F20000FEF738F910B172B6FEE700BF73
:1056D00044F60004C4F2000440F22C3004F580616A
:1056E0000023C2F200000C274FF4E13280E80E00E4
:1056F000C0E90333C0E90573C0E90733C0E90933E2
:10570000FEF764FD10B172B6FEE700BF40F22C3028
:10571000C2F200000021FEF717FA18B172B600BFFE
:10572000FEE700BF40F22C30C2F200000021FEF77D
:10573000C5F918B172B600BFFEE700BF40F22C30C9
:10574000C2F20000FEF7F8F810B172B6FEE700BF33
:1057500040F2042004F570410023C2F200000C273F
:105760004FF4165280E80E00C0E90333C0E9057318
:10577000C0E90733C0E90933FEF728FD10B172B65E
:10578000FEE700BF40F20420C2F200000021FEF755
:10579000DBF908B172B6FEE740F20420C2F2000065
:1057A0000021FEF78BF908B172B6FEE740F2042043
:1057B000C2F20000FEF7C0F810B172B6FEE700BFFB
:1057C00040F298204FF461210022C2F200000C2325
:1057D000C0E90041C0E90222C0E90423C0E9062271
:1057E000C0E908228262FEF7F1FC08B172B6FEE75A
:1057F00040F29820C2F200000021FEF7A5F908B19E
:1058000072B6FEE740F29820C2F200000021FEF7D7
:1058100055F908B172B6FEE740F29820C2F20000D6
:10582000FEF78AF810B172B6FEE700BF40F298208A
:10583000C2F20000D0F8800078B140F29820C2F2A5
:10584000000001681F220A6240F66541C2F20001B1
:105850004FF48072FEF78EF810B172B6FEE700BF0B
:1058600040F29820C2F20000D0F8800040F27006AA
:10587000006840F66558416940F6E03A21F400714D
:10588000C2F20006C2F20008C2F2000A416106E05C
:10589000002900F0EF803078002800F0D180707887
:1058A00038B340F29820C2F20000D0F8800000B374
:1058B00040F29820C2F2000001681F220A6240F6FE
:1058C0006541C2F200014FF48072FEF753F880B9CF
:1058D00040F29820C2F20000D0F8800000684169D0
:1058E00021F4007141610020707002E000208AF80C
:1058F0000000B088F1888842CDD0EFF3108172B6F5
:10590000B088F2889042C3D0B08818F80000B288FE
:1059100002F101026FF3DF22B28001B962B69AF898
:1059200000100529E2D8DFE801F0030911192D4321
:10593000552804BF01208AF80000DAE75528D8D09E
:10594000AA28D3D102208AF80000D2E78AF8010001
:105950008AF8040003208AF80000CAE78028C5D826
:105960009AF804108AF802000022014400284FF03F
:1059700004008AF803208AF8041008BF05208AF87A
:105980000000B6E79AF803209AF804309AF802105B
:10599000571C5244FDB2507118448AF803708D426E
:1059A0008AF8040024BF05208AF80000A1E700BFA0
:1059B0009AF8041081424FF000008AF800007FF44A
:1059C00098AF9AF80250002D3FF493AF9AF8017007
:1059D000B078F178013000F00F048C423FF489AFC9
:1059E000B07840F2C03100EB8010C2F2000101EB50
:1059F00040000AF1050102302A46FAF71DFD68B29F
:105A000000280CD4B07840F2C03100EB8010C2F214
:105A1000000101EB40002A21284401358170B07853
:105A200040F2C03100EB8010C2F2000101F81070AA
:105A3000B07800EB801001EB40004570B47058E77F
:105A4000F078B17888423FF42AAFF07840F2C03164
:105A500000EB8010C2F2000101EB400494F80190C9
:105A6000B9F1810F08D3F078013000F00F00F07029
:105A700015E700BF62B60EE7207841F268524AF699
:105A80005521C2F20002B9F1000F00EB090B1180A1
:105A9000907082F803900FD041F26850C2F200007B
:105AA000A11C04304A460191FAF7C6FCB9F1040F73
:105AB00004D2002018E000BF042027E009F0FC0118
:105AC000201F4A426FF003018379C479057A5B4451
:105AD000477A23442B44043107EB030B5318043358
